:100000000C94F3000C941B010C941B010C947815B8
:100010000C949C150C94C0150C941B010C941B01A2
:100020000C941B010C941B010C941B010C941B01E0
:100030000C941B010C941B010C941B010C941B01D0
:100040000C9435190C941B010C94211C0C94531C1A
:100050000C941B010C941B010C941B010C941B01B0
:100060000C941B010C941B0107634236B79BD8A765
:100070001A39685618AEBAAB558C1D3CB7CC5763CD
:10008000BD6DEDFD753EF6177231BF000000803F7B
:1000900008000000BE922449123EABAAAA2ABECD97
:1000A000CCCC4C3E00000080BEABAAAAAA3E000009
:1000B0000000BF000000803F000000000008417801
:1000C000D3BB4387D1133D190E3CC3BD4282AD2B38
:1000D0003E68EC8276BED98FE1A93E4C80EFFFBE30
:1000E00001C4FF7F3F000000000000C201000100CA
:1000F000110011000C0000E100000A00250025009D
:100100002100009600001900390039003600127AEB
:1001100000001F00460046004400807000002200DE
:100120004D004D004A00004B000036007500750080
:100130007200403800004A009C009C009900802515
:1001400000007200EC00EC00E900C0120000E900C1
:10015000DA01DA01D70160090000D701B603B6035E
:10016000B303B0040000B3036E076E076B072C01E6
:100170000000DC0EC11DC11DBE1D000000080002F4
:10018000010000030407000000000000000001025D
:100190000408102040800102040810200102040815
:1001A00010200404040404040404020202020202F3
:1001B00003030303030300000000230026002900BB
:1001C00000000000250028002B0000000000240093
:1001D00027002A001802C808BC0AC70ABC0C04146D
:1001E000831C311D410211241FBECFEFD8E0DEBFBA
:1001F000CDBF14E0A0E0B1E0E0E5F7E402C0059077
:100200000D92AE3BB107D9F726E0AEEBB4E001C0EA
:100210001D92A33DB207E1F711E0C4EED1E004C0A6
:100220002297FE010E949723C43DD107C9F70E947F
:10023000411D0C949B230C940000CF92DF92EF920F
:10024000FF921F93CF93DF9300D000D0CDB7DEB7DE
:10025000FB0120812F3309F058C02181203109F0A2
:1002600054C0DC01AA0FBB1FAC5EBB4F8D919C91AB
:10027000428150E0292F33274217530709F045C028
:10028000238130E099272817390709F03EC02581DE
:1002900030E0DF01179680E090E0C12CD12C760190
:1002A0008217930744F4FE2CED2CDC2CCC244D91CA
:1002B000C42A0196F5CF1681612F6F7370E016FF87
:1002C00003C0719561957109882777FD8095982FF6
:1002D0000E94CB209B01AC0160E070E080E291E4E1
:1002E0000E94E2219B01AC0117FD5058C701B601E5
:1002F00029833A834B835C830E94CB2029813A81F6
:100300004B815C810E947F2103C060E070E0CB01E3
:100310000F900F900F900F90DF91CF911F91FF9052
:10032000EF90DF90CF9008950F931F93CF93DF93BB
:100330009B01FC01280F391F60E070E0CB01E21740
:10034000F307E9F0C191D0E0A8E0B0E040E850E068
:10035000660F771F881F991F8A010C231D23012B0D
:1003600009F061605595479580FF06C08827992759
:1003700011E2612710E17127119751F7E0CFDF916A
:10038000CF911F910F910895CF92DF92EF92FF923C
:10039000CF93DF9300D000D000D0CDB7DEB76EE4AE
:1003A00071E080E396E00E948E1D85E795E00E9453
:1003B000C008BC0180E396E00E94B51D65E775E0CA
:1003C000CE0101960E94B40865E571E080E396E0F5
:1003D0000E948E1DBE016F5F7F4F80E396E00E94FA
:1003E000C71D85E795E00E94C2086B017C0162E6AB
:1003F00071E080E396E00E948E1D2AE030E0B701B4
:10040000A60180E396E00E94321E6AE771E080E375
:1004100096E00E94B51D26960FB6F894DEBF0FBE7B
:10042000CDBFDF91CF91FF90EF90DF90CF900895F7
:100430000F9300E020E040E060E08EE695E00E944F
:100440000A1D0AE12AE048EA60EC82E695E00E9493
:100450000A1D83E595E00E94E0090CE12FE046E0EB
:1004600061E88DE495E00E940A1D8EE395E00E940C
:10047000AA0C21E046E065E08EEE94E00F910C942A
:1004800032168EEE94E00C94331726E040E855E2E5
:1004900060E070E080E396E00E94BF1B61E08DE0C9
:1004A0000E94441A60E08DE00E947D1A60E085E0C1
:1004B0000E94441A61E086E00E94441A40EB54E036
:1004C00060E070E08EEE94E00E94621668EE73E0E9
:1004D00080E090E00E94AE196FE771E080E396E063
:1004E0000E94B51D66E273E080E396E00E94B51DB0
:1004F00044E351E06DE371E085E795E00E948A08EE
:1005000090936D0580936C05039739F064EA71E070
:1005100080E396E00E94B51DFFCF68EC71E080E3B8
:1005200096E00E94B51D0E94C40164E571E080E37D
:1005300096E00E94B51D60913201709133018EE307
:1005400095E00E940D0B6AEE71E080E396E00E9458
:10055000B51D61E373E080E396E00E94B51D8DEF69
:1005600097E00E941F1964E571E080E396E00C9427
:10057000B51D8F929F92AF92BF92CF92DF92EF9272
:10058000FF920F931F93CF93DF93CDB7DEB764979E
:100590000FB6F894DEBF0FBECDBFADB6BEB68B01B1
:1005A0000F5F1F4F98012F5F3F4F4DB75EB7421B44
:1005B000530B0FB6F8945EBF0FBE4DBFEDB7FEB73D
:1005C00031966F01DF01FC019F01281B390B2617B3
:1005D00037071CF421912D93F7CF7601E60EF71E15
:1005E000F70110824B01F2E08F0E911C0C0D1D1DC6
:1005F000F8011082B401C6010E949401F7017083D2
:10060000F80160839E012F5F3F4F790184E1F9017A
:1006100011928A95E9F780E88983F60101E010E0FC
:100620003BE1CF018C199D098815990504F52081BE
:10063000C8010196263041F02D3031F02B3121F0E8
:10064000203411F0203861F4D701A00FB11F3C9382
:100650000E5F1F4FD701A80FB91F20952C9305C01F
:10066000D701A00FB11F2C938C013196DACF8DE00A
:10067000F701E00FF11F80836701F60161916F01BF
:100680008EEE94E00E940A15C6018E199F09081784
:1006900019079CF70FB6F894BEBE0FBEADBE6496A8
:1006A0000FB6F894DEBF0FBECDBFDF91CF911F9183
:1006B0000F91FF90EF90DF90CF90BF90AF909F9001
:1006C0008F9008956F927F928F929F92AF92BF9278
:1006D000CF92DF92EF92FF920F931F93CF93DF930E
:1006E000CDB7DEB7E3970FB6F894DEBF0FBECDBF30
:1006F0008C012BAB0E947F194B015C018EEE94E0C4
:100700000E946214C12CD12C76012BA92D3041F10D
:100710000E947F19681979098A099B096D32714015
:100720008105910518F064E072E071C08EEE94E0EE
:100730000E944A14892B61F38EEE94E00E940F14FC
:10074000282F803429F3E1E0F0E0EC0FFD1FEC0DE1
:10075000FD1D80838FEFC81AD80AE80AF80AD6CFA1
:100760004801A12CB12CE1E0CE1AD108E108F10832
:100770003401601A710AC501A0E0B0E08C159D0536
:10078000AE05BF05D0F5E1E0F0E0EC0FFD1FEA0D8E
:10079000FB1D80818B3141F5FFEFAF1ABF0AE1E00D
:1007A000F0E0EC0FFD1FEA0DFB1D208120952630A7
:1007B000C1F02D30B1F02B31A1F0203491F0203870
:1007C00081F061E272E080E396E02BAB0E948E1D27
:1007D00040E150E02BA9622F80E396E00E94B01E1A
:1007E0002BA9F401208302C0F4018083FFEFAF1A2C
:1007F000BF0A2FEF821A920ABBCFB301C8010E9431
:100800009401672B682B692B49F061E372E080E368
:1008100096E00E94B51D80E090E001C0C301E39620
:100820000FB6F894DEBF0FBECDBFDF91CF911F9101
:100830000F91FF90EF90DF90CF90BF90AF909F907F
:100840008F907F906F9008950F931F93CF93DF93B6
:10085000CDB7DEB7AD970FB6F894DEBF0FBECDBFF4
:100860008C01CE01899625E0FC0111922A95E9F7C9
:100870002FE329A720E12AA721E02BA7F801EE0FFB
:10088000FF1FEC5EFB4F208131813CA72DA765E067
:1008900070E00E94B902CE0101960E946203892B8A
:1008A00039F0BE016F5F7F4FC8010E941D0100C07B
:1008B000AD960FB6F894DEBF0FBECDBFDF91CF91DE
:1008C0001F910F910895AF92BF92CF92DF92EF9256
:1008D000FF920F931F93CF93DF9300D000D000D0EF
:1008E000CDB7DEB78091180190911901019709F0F9
:1008F0009CC00E948E1860930A0570930B0580932C
:100900000C0590930D056DE372E080E396E00E9484
:10091000B51D6CE273E080E396E00E94B51DBCE17A
:10092000CB2EB1E0DB2E12E1E12E15E0F12E01E03D
:1009300010E0C8010E9424045701F701608371830D
:10094000828393830730110579F427ED33EA4EEB68
:1009500051E40E94C71F60932A0570932B05809372
:100960002C0590932D0519C009301105B1F424EA26
:1009700030E74BEB51E46091320570913305809183
:100980003405909135050E94C71F6093320570931E
:1009900033058093340590933505F601619171918B
:1009A0006F0180E396E00E948E1D63EB72E080E3AE
:1009B00096E00E948E1DF4E0EF0EF11CF5014081DF
:1009C00051816281738122E030E080E396E00E94F1
:1009D000B41F64E670E080E090E00E94AE190F5F03
:1009E0001F4F0B30110509F0A4CF2091360530912F
:1009F0003705409138055091390560913205709165
:100A0000330580913405909135050E94C71F60938E
:100A10003A0570933B0580933C0590933D0564E552
:100A200071E080E396E00E94B51D83E595E00E94A9
:100A3000270A811160C20E947F19009168051091F8
:100A4000690520916A0530916B05601B710B820B63
:100A5000930B693E73408105910508F44CC283E510
:100A600095E00E94FA0965EF72E080E396E00E944B
:100A7000B51D60E273E080E396E00E94B51D8EEA4A
:100A800094E09A8389838091640590916505A09193
:100A90006605B09167058B839C83AD83BE8340E57B
:100AA00050E0BE016F5F7F4F83E595E00E944A0AE8
:100AB000892B09F44BC26CE572E080E396E00E945A
:100AC000B51D67E672E080E396E00E94B51D67E819
:100AD00072E083E595E00E948E1DE0911801F0918F
:100AE0001901EE0FFF1FE050FF4F6081718183E518
:100AF00095E00E948E1D61EA72E083E595E00E9418
:100B00008E1DE0911801F0911901EE0FFF1FE65EB6
:100B1000FE4F6081718183E595E00E948E1D68EA39
:100B200072E083E595E00E948E1DE0911801F0913E
:100B30001901EE0FFF1FEE0FFF1FE25FFA4F40811A
:100B400051816281738122E030E083E595E00E946B
:100B5000B21F60EB72E083E595E00E948E1D60910C
:100B6000180170911901645D7E4F4AE050E083E501
:100B700095E00E947C1E65EB72E083E595E00E94A3
:100B80008E1D60910A0570910B0580910C05909166
:100B90000D050E9455184AE050E0BC0183E595E040
:100BA0000E947C1E69E473E083E595E00E948E1D3F
:100BB00060910A0570910B0580910C0590910D05CF
:100BC0000E944F184AE050E0BC0183E595E00E9486
:100BD0007C1E69E473E083E595E00E948E1D6091C0
:100BE0000A0570910B0580910C0590910D050E94EE
:100BF00049184AE050E0BC0183E595E00E947C1E64
:100C000069E473E083E595E00E948E1D60910A051A
:100C100070910B0580910C0590910D050E9437187D
:100C20008C018A30910534F46CEB72E083E595E039
:100C30000E948E1D4AE050E0B80183E595E00E94D5
:100C40007C1E68E771E083E595E00E948E1D60914F
:100C50000A0570910B0580910C0590910D050E947D
:100C60003D188C018A30910534F46CEB72E083E519
:100C700095E00E948E1D4AE050E0B80183E595E0C2
:100C80000E947C1E68E771E083E595E00E948E1D5E
:100C900060910A0570910B0580910C0590910D05EE
:100CA0000E9443188C018A30910534F46CEB72E099
:100CB00083E595E00E948E1D4AE050E0B80183E58F
:100CC00095E00E94841E0E947F19609368057093CE
:100CD000690580936A0590936B0567E872E080E38D
:100CE00096E00E948E1DE0911801F0911901EE0F1F
:100CF000FF1FE050FF4F6081718180E396E00E940A
:100D00008E1D61EA72E080E396E00E948E1DE09104
:100D10001801F0911901EE0FFF1FE65EFE4F608192
:100D2000718180E396E00E948E1D68EA72E080E3A4
:100D300096E00E948E1DE0911801F0911901EE0FCE
:100D4000FF1FEE0FFF1FE25FFA4F4081518162816A
:100D5000738122E030E080E396E00E94B21F60EBF6
:100D600072E080E396E00E948E1D60911801709100
:100D70001901645D7E4F4AE050E080E396E00E94F6
:100D80007C1E65EB72E080E396E00E948E1D609110
:100D90000A0570910B0580910C0590910D050E943C
:100DA00055184AE050E0BC0180E396E00E947C1EAA
:100DB00069E473E080E396E00E948E1D60910A056D
:100DC00070910B0580910C0590910D050E944F18B4
:100DD0004AE050E0BC0180E396E00E947C1E69E49A
:100DE00073E080E396E00E948E1D60910A05709189
:100DF0000B0580910C0590910D050E9449184AE061
:100E000050E0BC0180E396E00E947C1E69E473E040
:100E100080E396E00E948E1D60910A0570910B059B
:100E200080910C0590910D050E9437188C018A3035
:100E3000910534F46CEB72E080E396E00E948E1D25
:100E40004AE050E0B80180E396E00E947C1E68E72B
:100E500071E080E396E00E948E1D60910A0570911A
:100E60000B0580910C0590910D050E943D188C0199
:100E70008A30910534F46CEB72E080E396E00E94D6
:100E80008E1D4AE050E0B80180E396E00E947C1E8F
:100E900068E771E080E396E00E948E1D60910A058C
:100EA00070910B0580910C0590910D050E944318DF
:100EB0008C018A30910534F46CEB72E080E396E0AB
:100EC0000E948E1D4AE050E0B80180E396E00E9447
:100ED000841E6EEB72E080E396E00E94B51D809167
:100EE00018019091190101968C309105E4F49093CA
:100EF00019018093180185E00E94B31A682F8DE0D4
:100F00000E947D1A26960FB6F894DEBF0FBECDBFA5
:100F1000DF91CF911F910F91FF90EF90DF90CF90D5
:100F2000BF90AF90089581E090E090931901809375
:100F3000180160EE73E984E090E00E94AE1964E568
:100F400071E080E396E00E94B51DD5CF63EE72E0BC
:100F500080E396E00E94B51D83E595E00E94FA09C2
:100F6000CACFCF93DF9300D000D000D0CDB7DEB78B
:100F7000EEEBF4E020E3DF011D922A95E9F723EE82
:100F8000208326E02093C0042CEE2093C10421E3AB
:100F90002093CA043EE43093CB042093CC0424E392
:100FA0002093CD042EEA34E03A832983FC01828128
:100FB0009381A481B5818B839C83AD83BE834BE7F2
:100FC00050E0BE016F5F7F4F8EE395E00E94940B6F
:100FD00040E350E06EEB74E08EE395E00E94D50BA9
:100FE0008EE395E00E94CF0B26960FB6F894DEBFF5
:100FF0000FBECDBFDF91CF910895CF92DF92EF92D8
:10100000FF928EE395E00E94EF0A18161906CCF3C2
:101010006BE473E080E396E00E94B51D8DE495E0FB
:101020000E94B1070E947F196B017C010E947F1909
:101030006C197D098E099F096C3D754081059105EC
:1010400050F58EE395E00E94EF0AC0977CF360E6CE
:1010500073E080E396E00E94B51D40E350E06EEB44
:1010600074E08EE395E00E94280C2091E6046091E4
:10107000E704862F90E0A0E0B0E077276627922B68
:101080002091E904622B2091E804722B605672468D
:101090008A4A934809C065E773E080E396E00E94BE
:1010A000B51D60E070E0CB01FF90EF90DF90CF9036
:1010B0000895CF93CFB7F89480917405811116C02D
:1010C00061E08AE00E947D1A61E08AE00E94441A91
:1010D0008CB580618CBD8CB580648CBD61E08DE089
:1010E0000E94441A61E08BE00E94441A80917405CA
:1010F0008F5F80937405CFBFCF910895E6E7F5E049
:1011000080E021913191232B21F08F5F8430C9F74A
:101110008FEF0895CF93CB01FA0101900020E9F7FA
:101120009F0121503109241B350BFB010190002048
:10113000E9F73197E61BF70B6E2F0E9473128F3F72
:1011400079F0CAE068E873E180E090E00E94AE19AF
:101150000E94B512982F9D7F21F4C15011F0F2CF5B
:1011600084E090E0CF910895CF93DF93EC010E944B
:10117000001DCE010E94D912CE01DF91CF910895BA
:101180000C94EB120C941513CB01BA010C94DF13E1
:101190000F9300E020E040E060E08EE795E00E94E1
:1011A0000A1D0F910C947112CF93DF931F92CDB74C
:1011B000DEB76983DC01ED91FC910280F381E02DC3
:1011C00041E050E0BE016F5F7F4F09950F90DF91C6
:1011D000CF910895CF93DF93EC01E881F9810480EA
:1011E000F581E02DCE010995892B41F0E881F98147
:1011F0000680F781E02DCE010995EFCFDF91CF91E9
:10120000089521E0FC0184858F3F09F420E0822FBE
:101210000895CF92DF92EF92FF920F931F93CF9397
:10122000DF93CDB7DEB72E970FB6F894DEBF0FBEB3
:10123000CDBF7C016A01CE0107966D877E870E9433
:10124000001DAE01495F5F4F6D857E8585E795E0A6
:101250000E94C4080097C1F0D701ED91FC9104846D
:10126000F585E02D8EEA94E09A83898309851A85B5
:101270002B853C850B831C832D833E83A601BE01F9
:101280006F5F7F4FC70109952E960FB6F894DEBFAA
:101290000FBECDBFDF91CF911F910F91FF90EF90C7
:1012A000DF90CF900895FC0184858F3F11F00C945E
:1012B000A80D80E090E008950F931F93CF93DF93E4
:1012C0001F92CDB7DEB78C01DC01ED91FC9104805B
:1012D000F581E02D0995892B59F040E0BE016F5F43
:1012E0007F4FF80184850E94D70D898190E002C06C
:1012F0008FEF9FEF0F90DF91CF911F910F91089586
:101300000F931F93CF93DF931F92CDB7DEB78C015E
:10131000DC01ED91FC910480F581E02D0995892B8C
:1013200059F041E0BE016F5F7F4FF80184850E9454
:10133000D70D898190E002C08FEF9FEF0F90DF9172
:10134000CF911F910F910895CF93DF9300D0CDB728
:10135000DEB75A834983AE014F5F5F4FFC0184853E
:101360000E94170E91E09827892F90E09195819522
:1013700091090F900F90DF91CF9108950F931F93D4
:10138000CF93DF93EC018A018C85843060F44115A2
:10139000510549F00E94BE0E882329F08C850E94D9
:1013A000000F811107C081E090E09B838A8380E079
:1013B00090E001C0C801DF91CF911F910F91089576
:1013C000FC011382128248EE53E060E070E0448337
:1013D00055836683778382E494E09183808384E0FD
:1013E00084870895FC0184858F3F11F00C947C0D57
:1013F00080E008950F931F93CF93DF93EC018C85CA
:101400008F3F01F10E94510DEC85F0E0EE0FFF1FC0
:10141000EE5BFE4F8FEF9FEF9183808302E310E03E
:10142000CE010E94F209882319F00150110919F424
:101430008FEF8C8707C064E670E080E090E00E9448
:10144000AE19EECFDF91CF911F910F910895FC015E
:1014500024852F3F71F00E94F209843050F09BEFF9
:10146000980F933030F091E08A3009F490E0892FA2
:10147000089580E00895E2E4F1E080E090E02191B9
:1014800031912F3F3F4F29F0019684309105B9F7F4
:101490008FEF0895AF92BF92CF92DF92EF92FF92BB
:1014A0000F93CF93DF9300D0CDB7DEB75C017B0104
:1014B00049835A830E943B0A282FD5011C968C939E
:1014C00049815A818F3F69F1F7016281738184817B
:1014D000958100E00E94030DD5011C968C9190E04F
:1014E000FC01EE0FFF1FEE5BFE4F918380830E9495
:1014F0007F196B017C01D501ED91FC910488F58980
:10150000E02DC5010995811115C00E947F196C1944
:101510007D098E099F096031774281059105C8F0E8
:1015200009C06AE274E080E396E00E94B51D80E0A5
:1015300090E016C0D501ED91FC910488F589E02D6D
:10154000C501099521E090E0811101C020E0822FC2
:1015500007C061E070E080E090E00E94AE19CBCF60
:101560000F900F90DF91CF910F91FF90EF90DF9050
:10157000CF90BF90AF9008950F9300E020E040E03F
:1015800060E084E895E00E940A1D0F9108950F9392
:1015900000E020E040E060E08AE895E00E940A1D5B
:1015A0000F910895DC01ED91FC91008CF18DE02DFF
:1015B0000994CF93DF931F92CDB7DEB76983DC0127
:1015C000ED91FC910280F381E02D41E050E0BE01FD
:1015D0006F5F7F4F09950F90DF91CF910895DC01E8
:1015E000ED91FC910480F581E02D0994CF93DF9378
:1015F000EC01E881F9810480F581E02DCE010995A7
:10160000892B41F0E881F9810680F781E02DCE0138
:101610000995EFCFDF91CF910895FF920F931F931C
:10162000CF93DF938C01EB010E947E08F82E8FEFA1
:10163000F81699F041E06F2DCE010E94C70CEF2DF6
:10164000F0E0EE0FFF1FEA58FA4FD183C083F80194
:10165000F486D687C58781E001C080E0DF91CF9115
:101660001F910F91FF900895FC0184858F3F11F029
:101670000C94A80D80E090E00895CF93DF93EC01E7
:101680008C858F3F21F00E94510D8FEF8C87DF9169
:10169000CF910895CF92DF92EF92FF920F931F9315
:1016A000CF93DF93CDB7DEB72E970FB6F894DEBF9A
:1016B0000FBECDBF7C016A01CE0107966D877E8784
:1016C0000E94001DAE01495F5F4F6D857E8585E7F5
:1016D00095E00E94C4080097C1F0D701ED91FC91FC
:1016E0000088F189E02D8EEA94E09A838983098548
:1016F0001A852B853C850B831C832D833E83A60195
:10170000BE016F5F7F4FC70109952E960FB6F89403
:10171000DEBF0FBECDBFDF91CF911F910F91FF9024
:10172000EF90DF90CF900895EF92FF920F931F9369
:10173000CF93DF9300D0CDB7DEB77C018B01FC01E6
:1017400084858F3F41F449835A830E947E08F701C4
:1017500084875A814981F70124852F3FA9F0F80138
:10176000628173818481958101E00E94030DF701FC
:10177000848590E0FC01EE0FFF1FEE5BFE4F91832E
:10178000808381E090E002C080E090E00F900F90B5
:10179000DF91CF911F910F91FF90EF900895FC0181
:1017A00084850E948C0E90E00895CF93DF93EA0128
:1017B000FC0184850E944A0ECE01DF91CF910895ED
:1017C0000F931F93CF93DF931F92CDB7DEB78C019A
:1017D000DC01ED91FC910480F581E02D0995892BC8
:1017E00059F040E0BE016F5F7F4FF80184850E9491
:1017F000D70D898190E002C08FEF9FEF0F90DF91AE
:10180000CF911F910F9108950F931F93CF93DF9363
:101810001F92CDB7DEB78C01DC01ED91FC91048005
:10182000F581E02D0995892B59F041E0BE016F5FEC
:101830007F4FF80184850E94D70D898190E002C016
:101840008FEF9FEF0F90DF91CF911F910F91089530
:101850000F931F93CF93DF9300D000D0CDB7DEB7A7
:101860008C01DC01ED91FC910480F581E02D6B830E
:101870007C8309956B817C81892B71F01A82198296
:10188000AE014F5F5F4FF80184850E94170E8823D9
:1018900019F089819A8102C08FEF9FEF0F900F900E
:1018A0000F900F90DF91CF911F910F910895CF93DB
:1018B000DF9300D000D000D0CDB7DEB719821A82F6
:1018C0001B821C821E821D82AE014B5F5F4FBE01D8
:1018D0006F5F7F4FFC0184850E9436128D8190E0FE
:1018E000982F88272E81820F911D26960FB6F89487
:1018F000DEBF0FBECDBFDF91CF9108950F931F9331
:10190000CF93DF9300D000D000D0CDB7DEB78C01ED
:10191000FB0119821A821B821C821E821D82AE016B
:101920004B5F5F4FBE016F5F7F4F84850E94361211
:10193000BE016F5F7F4FC8010E94161DC801269629
:101940000FB6F894DEBF0FBECDBFDF91CF911F91D0
:101950000F910895FC011382128248EE53E060E07B
:1019600070E044835583668377838EE594E09183AA
:1019700080838FEF848708950F9300E020E040E09C
:1019800060E080E995E00E940A1D0F9108950F9391
:101990001F93CF93DF9300D000D0CDB7DEB78C017B
:1019A0006B834C830E948D0F0E946E0F63E088E270
:1019B0000E94DC1160E0C8010E94B81140E061E0C3
:1019C000CE0103960E944C1041E061E0CE010496E6
:1019D0000E944C100E948D0F1A8219829E012F5F67
:1019E0003F4FAE014E5F5F4F61E088E20E948F1073
:1019F0000E94720F0F900F900F900F90DF91CF9178
:101A00001F910F910895EF92FF920F93CF93DF9361
:101A1000CDB7DEB728970FB6F894DEBF0FBECDBFA7
:101A20006B837C838D839E837A012F8308870E943A
:101A30008D0F0E946E0F64E08DE20E94DC1140E089
:101A400064E0CE0103960E944C1060E0C7010E9442
:101A5000B81140E061E0CE0107960E944C1041E0D1
:101A600061E0CE0108960E944C100E948D0F1A82F0
:101A700019829E012F5F3F4FAE014E5F5F4F61E0C5
:101A80008DE20E948F100E94720F28960FB6F89474
:101A9000DEBF0FBECDBFDF91CF910F91FF90EF90D2
:101AA0000895CF93DF9300D01F92CDB7DEB78B831D
:101AB0000E948D0F0E946E0F61E08EE20E94DC1189
:101AC00041E061E0CE0103960E944C100E948D0F10
:101AD0001A8219829E012F5F3F4FAE014E5F5F4F0A
:101AE00061E08EE20E948F100E94720F0F900F90A3
:101AF0000F90DF91CF910895CF93DF9300D01F9285
:101B0000CDB7DEB78B830E948D0F0E946E0F61E010
:101B10008FE20E94DC1141E061E0CE0103960E9459
:101B20004C100E948D0F1A8219829E012F5F3F4F29
:101B3000AE014E5F5F4F61E08FE20E948F100E9406
:101B4000720F8A810F900F900F90DF91CF910895BF
:101B5000CF93DF9300D000D0CDB7DEB78C830E9447
:101B60008D0F0E946E0F61E08BE20E94DC1141E05C
:101B700061E0CE0104960E944C100E948D0F1B82E2
:101B80001A8219829E012D5F3F4FAE014F5F5F4F5A
:101B900061E08BE20E948F100E94720F89819A810E
:101BA0000F900F900F900F90DF91CF910895FF92BB
:101BB0000F931F93CF93DF9300D01F92CDB7DEB763
:101BC0008B838B01F42E0E948D0F0E946E0F62E0BA
:101BD0008CE20E94DC1140E061E0CE0103960E949D
:101BE0004C1061E08F2D90E00E94B8110E948D0F83
:101BF0001A821982AE014F5F5F4FBE016E5F7F4F49
:101C00008CE20E94DB100E94720F8981882329F0E8
:101C10008A81F801808381E001C080E00F900F90FD
:101C20000F90DF91CF911F910F91FF900895EF9248
:101C3000FF920F931F93CF93DF931F92CDB7DEB721
:101C400089837B018A010E948D0F0E946E0F61E0E3
:101C500085E40E94DC1141E061E070E0CE01019674
:101C60000E948A110E948D0FA801B70185E40E948D
:101C700040110E94720F81E0F80120813181232BF5
:101C800009F480E00F90DF91CF911F910F91FF90A9
:101C9000EF900895EF92FF920F931F93CF93DF93EE
:101CA00000D01F92CDB7DEB78B838B017A010E94E3
:101CB0008D0F0E946E0F62E086E40E94DC1140E00E
:101CC00061E070E0CE0103960E948A1141E0B70105
:101CD000C8010E948A110E948D0F1A821982AE01DA
:101CE0004F5F5F4FBE016E5F7F4F86E40E94DB1047
:101CF0000E94720F8981882321F081E09A819130BE
:101D000009F080E00F900F900F90DF91CF911F911D
:101D10000F91FF90EF900895CF93DF9300D01F9223
:101D2000CDB7DEB78B830E948D0F0E946E0F61E0EE
:101D300089E30E94DC1141E061E0CE0103960E943C
:101D40004C100E948D0F1A821982AE014F5F5F4FB7
:101D5000BE016E5F7F4F89E30E94DB100E94720F0D
:101D60008981882321F081E09A81913009F080E017
:101D70000F900F900F90DF91CF910895EF92FF9207
:101D80000F931F93CF93DF9300D01F92CDB7DEB791
:101D90008B838B017A010E948D0F0E946E0F62E08F
:101DA00084E40E94DC1140E061E070E0CE01039623
:101DB0000E948A1141E0B701C8010E948A110E9465
:101DC0008D0F1A821982AE014F5F5F4FBE016E5FA9
:101DD0007F4F84E40E94DB100E94720F8981882368
:101DE00021F081E09A81913009F080E00F900F900E
:101DF0000F90DF91CF911F910F91FF90EF90089579
:101E00000F931F93CF93DF9300D01F92CDB7DEB710
:101E10008B831A82198200E010E00E948D0F0E94CD
:101E20006E0F61E08AE20E94DC1141E061E0CE01C8
:101E300003960E944C100E948D0F9E012F5F3F4F12
:101E4000AE014E5F5F4F61E08AE20E948F100E94F8
:101E5000720F8A81811109C00F5F1F4F64E670E025
:101E600080E090E00E94AE1902C000E010E08A819C
:101E7000882331F081E00931110531F480E004C09C
:101E80000931110550F2F6CF0F900F900F90DF91AE
:101E9000CF911F910F9108950E94590861E08AE047
:101EA0000E94441A60E087E00E94441A61E089E0E1
:101EB0000E94441A60E08DE00E947D1A60E08BE091
:101EC0000E947D1A61E08AE00E947D1A61E08AE04A
:101ED0000E947D1A60E089E00C947D1A60E08AE03F
:101EE0000C947D1A61E08AE00C947D1ACF93DF9305
:101EF0001F92CDB7DEB7898389818EBD00000DB4F6
:101F000007FEFDCF8EB52AE030E0000021503109F8
:101F1000E1F70F90DF91CF91089587E00E94B31A07
:101F2000892BD9F70895CF93DF93EC018FEF0E94AF
:101F3000760F88838AE090E000000197E9F7DF914F
:101F4000CF9108951F93CF93DF93182FEB01CB010F
:101F50000E94930F81E090E02881211711F080E02A
:101F600090E0DF91CF911F910895CF93DF931F925F
:101F7000CDB7DEB71982CE0101960E94930F8981F9
:101F80000F90DF91CF9108951F93CF93DF93182F78
:101F9000C9EED3E00E94B50F282F8F3E29F021977C
:101FA00031F08113F7CF03C08FEF9FEF04C081E0C2
:101FB00090E0211380E0DF91CF911F9108956F92FF
:101FC0007F928F929F92AF92BF92CF92DF92EF92C9
:101FD000FF920F931F93CF93DF931F92CDB7DEB77E
:101FE000182F662E7A01198280EE0E94C40F892B69
:101FF00019F480E090E040C0CE0101960E94930F5A
:10200000106889818113F5CF0E94B50F782E88233F
:1020100081F38701C12CD12C882E912CC814D904AE
:102020000CF58FEF0E94760FF8018083E12CF12CE4
:10203000F801208130E0E216F30674F4F801A18083
:10204000B280AE0CBF1C8FEF0E94760FF50180832B
:10205000FFEFEF1AFF0AECCFFFEFCF1ADF0A0D5F99
:102060001F4FDCCF6710C5CFBE016F5F7F4F8EEE75
:102070000E94A20F81E090E00F90DF91CF911F911D
:102080000F91FF90EF90DF90CF90BF90AF909F9017
:102090008F907F906F900895DF92EF92FF920F9351
:1020A0001F93CF93DF938C01E62ED42E862F0E94B0
:1020B000760FE801F12CCE01801B910B8E159F0548
:1020C00024F489910E94760FF6CF81E0D8120AC0DD
:1020D0008EEEDF91CF911F910F91FF90EF90DF90E7
:1020E0000C94760FDF91CF911F910F91FF90EF909D
:1020F000DF900895CF93C82F892F0E94760F8C2FE1
:10210000CF910C94760FCF93DF93EC018FEF0E9469
:10211000760F209709F08883DF91CF910895CF92B1
:10212000DF92EF92FF920F931F93CF93DF931F9253
:10213000CDB7DEB7082F162F6A017901198280EE1C
:102140000E94C40F892B19F480E090E02AC0CE01D0
:1021500001960E94930F006889818013F5CFCE010C
:1021600001960E94930F89818113EECFC7010E94CF
:10217000831000E010E0F701808190E00817190754
:1021800044F4C601800F911F0E94930F0F5F1F4FF1
:10219000F2CFBE016F5F7F4F8EEE0E94A20F81E0F3
:1021A00090E00F90DF91CF911F910F91FF90EF90F2
:1021B000DF90CF900895CF92DF92EF92FF920F932E
:1021C0001F93CF93DF931F92CDB7DEB7182F6B010C
:1021D0007A01198280EE0E94C40F892B19F480E0E5
:1021E00090E029C0CE0101960E94930F106889816A
:1021F0008113F5CF0E94B50F811109C0BE016F5F39
:102200007F4F8EEE0E94A20F81E090E014C0C701C4
:102210000E9483108601F701808190E098012C19BB
:102220003D092817390754F78FEF0E94760FF80100
:1022300081938F01F0CF0F90DF91CF911F910F917C
:10224000FF90EF90DF90CF9008951F93CF93DF938F
:10225000EC018FEF0E94760F182F8FEF0E94760F00
:10226000212F332727FD3095322F2227282B209727
:1022700011F039832883C901DF91CF911F9108950F
:10228000CF92DF92EF92FF920F931F93CF93DF9342
:102290001F92CDB7DEB7182F6B017A01198280EE3D
:1022A0000E94C40F892B19F480E090E029C0CE0170
:1022B00001960E94930F106889818113F5CF0E94C7
:1022C000B50F811109C0BE016F5F7F4F8EEE0E9476
:1022D000A20F81E090E014C0C7010E942511860181
:1022E000F7018081918198012C193D092817390740
:1022F00050F78FEF0E94760FF80181938F01F0CF96
:102300000F90DF91CF911F910F91FF90EF90DF9091
:10231000CF900895DF92EF92FF920F931F93CF9388
:10232000DF93D82EE92E8B01F42ECB010E947A1078
:10233000CD2DDE2D0C0F1D1FC017D10721F0899167
:102340000E94760FF9CF81E0F8120AC08EEEDF917D
:10235000CF911F910F91FF90EF90DF900C94760F2B
:10236000DF91CF911F910F91FF90EF90DF90089533
:102370001F93CF93DF9300D0CDB7DEB7182F82E045
:102380006A8399830E94760F9981892F0E94760F24
:10239000812F0E94760F6A81613041F48EEE0F909A
:1023A0000F90DF91CF911F910C94760F0F900F90AB
:1023B000DF91CF911F910895CF93DF93D82FC62F30
:1023C00080EE0E94760F8AE090E00E94D6198D2F51
:1023D0008F770E94760F8C2F0E94760FC11105C057
:1023E0008EEEDF91CF910C94760FDF91CF9108950F
:1023F0000F931F93CF93DF93CDB7DEB72A970FB616
:10240000F894DEBF0FBECDBF8E010F5F1F4F29E0D6
:10241000F80111922A95E9F79B838A837E836D8365
:10242000598748870E948D0F0E946E0F61E081E2FC
:102430000E94DC118FEF8A8741E061E0CE010A96AD
:102440000E944C100E948D0FA80163E081E20E945F
:10245000DF0F0E94720F2A960FB6F894DEBF0FBEF0
:10246000CDBFDF91CF911F910F9108950F931F93CF
:10247000CF93DF93CDB7DEB727970FB6F894DEBFC3
:102480000FBECDBF8F838E010F5F1F4F86E0F80117
:1024900011928A95E9F77B836A835E834D830E945C
:1024A0008D0F0E946E0F61E08AE30E94DC1141E013
:1024B00061E0CE0107960E944C100E948D0FA8018A
:1024C00062E08AE30E94DF0F0E94720F27960FB628
:1024D000F894DEBF0FBECDBFDF91CF911F910F915A
:1024E00008950C944C0FDF92EF92FF920F931F937D
:1024F000CF93DF9300D01F92CDB7DEB78C01D62EDD
:102500007A012B830E948D0F0E946E0F62E081E1A1
:102510000E94DC1140E06D2DC8010E944C1041E08A
:102520002B81622FC7010E944C100E948D0F1A82CE
:1025300019829E012F5F3F4FAE014E5F5F4F61E0FA
:1025400081E10E948F10892B11F48FEF8A830E9402
:10255000720F8A810F900F900F90DF91CF911F9192
:102560000F91FF90EF90DF900895CF93DF9300D00D
:10257000CDB7DEB70E948D0F0E946E0F60E080E243
:102580000E94DC110E948D0F8FEF8A8319829E01B9
:102590002F5F3F4FAE014E5F5F4F61E080E20E94D0
:1025A0008F100E94720F8A810F900F90DF91CF9150
:1025B0000895CF93DF93EC0146E955E06AE975E0B1
:1025C0008EE995E00E94F8116EE975E0CE01DF9189
:1025D000CF910C94261DCF93DF9300D0CDB7DEB7FB
:1025E0000E948D0F0E946E0F61E083E20E94DC1159
:1025F0008FEF8A8341E061E0CE0102960E944C1089
:102600000E948D0F19829E012F5F3F4F42EA55E0D5
:1026100061E083E20E948F100E94720F82EA95E0CF
:102620000F900F90DF91CF910895CF93DF9300D05B
:1026300000D000D0CDB7DEB70E948D0F0E946E0F84
:1026400061E085E20E94DC118FEF8E8341E061E062
:10265000CE0106960E944C100E948D0F1D82198299
:102660001A821B821C829E012B5F3F4FAE014F5F7F
:102670005F4F61E085E20E948F100E94720F6981B6
:102680007A818B819C8126960FB6F894DEBF0FBEAF
:10269000CDBFDF91CF9108950F931F93CF93DF9319
:1026A00000D01F92CDB7DEB78C010E948D0F0E9423
:1026B0006E0F61E084E30E94DC11F80101900020BC
:1026C000E9F7BF0161507109601B710B41E0C8015E
:1026D0000E944C100E948D0F1A8219829E012F5F5A
:1026E0003F4FAE014E5F5F4F61E084E30E948F1069
:1026F0008B830E94720F8B810F900F900F90DF9150
:10270000CF911F910F910895EF92FF920F931F9316
:10271000CF93DF93CDB7DEB72D970FB6F894DEBF1A
:102720000FBECDBF7C010FEF2FEF4FEF6FEFCE014C
:1027300001960E940A1D0E948D0F0E946E0F60E09C
:1027400085E30E94DC110E948D0F1B869E01255F90
:102750003F4FAE01495F5F4F61E085E30E948F10FC
:10276000892BC1F0BE01695F7F4FC7010E94261D02
:1027700081E090E0F70102811381248135814B8152
:102780005C816D817E81041715072607370721F4C8
:1027900080E002C080E090E08C879D870E94720FED
:1027A0008C859D852D960FB6F894DEBF0FBECDBFEC
:1027B000DF91CF911F910F91FF90EF9008951F939C
:1027C000CF93DF93EB010E944C13882349F01AE06A
:1027D000CE010E948413892B31F4115051F403C0AF
:1027E00080E090E00DC081E090E0111109C080E030
:1027F00007C068EE73E080E090E00E94AE19E8CF79
:10280000DF91CF911F9108950F9300E020E040E009
:1028100060E082EC95E00E940A1D0F9108952091DE
:102820000A0630910B0628173907B9F49091C805AC
:102830008091C905981789F0E091C805F0E0E6534A
:10284000FA4F80812091C80530E02F5F3F4F2F73F2
:1028500033272093C80590E008958FEF9FEF0895E8
:1028600020910A0630910B062817390781F49091C0
:10287000C8058091C905981751F0E091C805F0E0AE
:10288000E653FA4F8081992787FD909508958FEF41
:102890009FEF089520910A0630910B0628173907FB
:1028A00071F48091C9052091C80590E0805C9F4F2C
:1028B000821B910960E470E00E944B23089580E040
:1028C00090E0089520910A0630910B0628173907E9
:1028D00039F48FB7F8941092C9051092C8058FBFCC
:1028E0000895DC015196ED91FC915297208150960C
:1028F0008C91809582238083089520E001972FEFAB
:102900008F3F9207D9F7089520910A0630910B0660
:102910002817390789F0FC01238D2E7F238F2FB7CD
:10292000F8941092C9051092C80590930B068093F5
:102930000A062FBF81E0089580E00895EF92FF928C
:102940000F931F93CF93DF93EC018B8DEE85FF8563
:102950009D8581FF04C08081892329F045C0808145
:10296000892309F441C08B899C890E947D1408E069
:1029700010E0EE24E394F12C8D899E890E947D1451
:10298000EE85FF8580819D85892311F0FE2803C097
:102990008E2D8095F822EE0C0150110969F78F8970
:1029A000988D0E947D148B8D81FFF0948091C905D4
:1029B0002091C80590E001968F73992730E0821727
:1029C000930779F0E091C905F0E0E653FA4FF08201
:1029D0008091C90590E001968F7399278093C9056E
:1029E00003C08B8D81608B8FDF91CF911F910F91F1
:1029F000FF90EF900895611102C00C947114DC01F6
:102A00005196ED91FC915297208150968C91282BF4
:102A100020830895DF92EF92FF920F931F93CF933D
:102A2000DF93EC01E62E898D9A8D892B39F481E0B4
:102A300090E09B838A8380E090E049C0DFB6F89401
:102A40006B8D66956170CE010E94FB14898D9A8D05
:102A500005960E947D148B8D08E010E0FF24F3940E
:102A600081FF17C08F2D8E2121F0CE010E9471149D
:102A700004C061E0CE010E94FB14898D9A8D0E94F2
:102A80007D14FF0C0150110969F7CE010E947114E9
:102A900017C08F2D8E2129F061E0CE010E94FB141A
:102AA00003C0CE010E947114898D9A8D0E947D14FD
:102AB000FF0C0150110969F761E0CE010E94FB147F
:102AC000DFBE898D9A8D0E947D1481E090E0DF91B8
:102AD000CF911F910F91FF90EF90DF90089580911B
:102AE0000A0690910B06009711F00C949E1408951D
:102AF0001F920F920FB60F9211242F933F934F9373
:102B00005F936F937F938F939F93AF93BF93EF9355
:102B1000FF930E946F15FF91EF91BF91AF919F912D
:102B20008F917F916F915F914F913F912F910F9076
:102B30000FBE0F901F9018951F920F920FB60F9215
:102B400011242F933F934F935F936F937F938F93B2
:102B50009F93AF93BF93EF93FF930E946F15FF91E5
:102B6000EF91BF91AF919F918F917F916F915F9105
:102B70004F913F912F910F900FBE0F901F9018957E
:102B80001F920F920FB60F9211242F933F934F93E2
:102B90005F936F937F938F939F93AF93BF93EF93C5
:102BA000FF930E946F15FF91EF91BF91AF919F919D
:102BB0008F917F916F915F914F913F912F910F90E6
:102BC0000FBE0F901F9018951F93CF93DF93EC01CA
:102BD000162F61E0812F0E94441A61E0812F0E942C
:102BE0007D1A812F90E0FC01E257FE4FE491E88BC3
:102BF000FC01EE55FE4FE491F0E0EE0FFF1FE054B4
:102C0000FE4F859194919A8B898BDF91CF911F9183
:102C100008951F93CF93DF93EC01162F60E0812F6F
:102C20000E94441A8B8D81FF04C061E0812F0E94B5
:102C30007D1A1C87812F90E0FC01E257FE4FE49142
:102C4000ED87FC01EE55FE4FE491F0E0EE0FFF1F23
:102C5000EA54FE4F859194919F878E87DF91CF91A3
:102C60001F910895FF920F931F93CF93DF93EC0171
:102C7000F62E522F1B821A8208EE13E020E030E07D
:102C80000C831D832E833F8382E894E0998388839D
:102C90001C8A1B8A1E8A1D8A188E1F8A1A8E198EFC
:102CA0008B8D8E7F50FB81F98B8F642FCE010E941C
:102CB000E4156F2DCE01DF91CF911F910F91FF9001
:102CC0000C9409160F931F93CF93DF93EC011A8E88
:102CD000198E188E1F8A1E8A1D8AAAEEB0E080E027
:102CE00090E0FD0105911591259134910417150788
:102CF0002607370709F031C02CE0289FF001299FF3
:102D0000F00D1124E251FF4F259134913C8B2B8B18
:102D10002CE0289FF001299FF00D1124E051FF4F76
:102D2000259134913E8B2D8B2CE0289FF001299F1B
:102D3000F00D1124EE50FF4F25913491388F2F8BD9
:102D40002CE0289FF001299FF00D1124EC50FF4F3B
:102D5000859194919A8F898F08C001961C968C302A
:102D6000910509F0BECF1C8A1B8A8F89988D892B0B
:102D700009F443C08C858631E0F5209168008830E5
:102D800050F091E08E3008F490E081E001C0880FAF
:102D90009A95EAF701C084E0822B809368002C8525
:102DA000283038F02E3040F0263148F0E0E0F0E0F6
:102DB00008C0EDE6F0E005C0EBE6F0E002C0ECE6AE
:102DC000F0E03081283030F481E001C0880F2A958E
:102DD000EAF70DC0822F90E02E3010F4089701C062
:102DE0000E9791E001C0990F8A95EAF7892F832BFE
:102DF0008083898D9A8D0E947D14CE01DF91CF91C1
:102E00001F910F910C948414FC014485463150F5B8
:102E1000483028F04E3030F4EBE6F0E005C0EDE647
:102E2000F0E002C0ECE6F0E05081483040F481E090
:102E300090E0042E01C0880F0A94EAF710C0242FF6
:102E400030E04E3018F42850310902C02E503109BC
:102E500081E090E0022E01C0880F0A94EAF7809585
:102E600085238083089522E834E0FC0131832083A8
:102E70000C9404176F927F928F929F92AF92BF92A1
:102E8000CF92DF92EF92FF920F931F93CF93DF9336
:102E9000EA012CE3C22ED12CE12CF12CA7019601E2
:102EA0000E945F236883CA01B901A70196010E94AD
:102EB0005F236983CA01B90128E130E040E050E0B6
:102EC0000E945F2349015A016A83CA01B9016C5FFC
:102ED0007F4F8F4F9F4F27E030E040E050E00E944F
:102EE0005F236F5F6B8300E010E0980140E054E6E1
:102EF000652E712C60E9C62EDD24D394E42FF0E01A
:102F0000EE54F84F7F0183E0E822FF24E114F1043E
:102F100089F4CF01B3010E944B23892B29F08EE65F
:102F200091E0A0E0B0E00AC0CF01B6010E944B23BF
:102F3000892BA9F38DE691E0A0E0B0E0080F191FFE
:102F40002A1F3B1FD901C801AA27BB27881699064B
:102F5000AA06BB0610F04F5FD1CF4E83E114F104F7
:102F600099F4CF0164E670E00E944B23892B29F08D
:102F70008EE691E0A0E0B0E00BC0CF0160E971E027
:102F80000E944B23892BA1F38DE691E0A0E0B0E0F5
:102F9000081B190B2A0B3B0B801A910AA20AB30AD1
:102FA000CF0164E670E00E944B239C01CF0160E9F1
:102FB00071E00E944B23EEE8F4E0A0E0A13059F468
:102FC000E114F10451F42115310511F04DE106C071
:102FD0000097E1F302C0408101C04CE150E060E0A5
:102FE00070E084169506A606B70640F0841A950A86
:102FF000A60AB70AAF5F3196AC3001F7AF5FAD8379
:1030000083948C82DF91CF911F910F91FF90EF906D
:10301000DF90CF90BF90AF909F908F907F906F90F8
:103020000895CF92DF92EF92FF926B017C01809125
:103030001C0690911D06A0911E06B0911F06C81691
:10304000D906EA06FB0671F040E256E0C701B60178
:103050000E943A17C0921C06D0921D06E0921E06EE
:10306000F0921F06FF90EF90DF90CF9008950E949E
:1030700011188091220690E008950E941118809105
:10308000210690E008950E9411188091200690E09A
:1030900008950E9411188091240690E008950E94DE
:1030A00011188091250690E008950E9411188091D2
:1030B000260690E08E54984F08950F931F936093C7
:1030C00018067093190680931A0690931B060091B8
:1030D0004A0110914B0120914C0130914D01060F96
:1030E000171F281F391F00931006109311062093F5
:1030F00012063093130682E090E090930F068093BF
:103100000E060E947F196093140670931506809333
:103110001606909317061F910F910895CF92DF9294
:10312000EF92FF920F931F930E947F19C090140695
:10313000D0901506E0901606F09017066C197D09E0
:103140008E099F09009118061091190620911A0600
:1031500030911B06683E734081059105D8F00F5FE2
:103160001F4F2F4F3F4F00931806109319062093BF
:103170001A0630931B0648EEC40E43E0D41EE11C31
:10318000F11CC0921406D0921506E0921606F09239
:103190001706CACF8091100690911106A0911206D1
:1031A000B0911306081719072A073B07C8F1E091E9
:1031B0000C06F0910D06309799F10995611571058E
:1031C0008105910519F00E945D182AC080914A017D
:1031D00090914B01A0914C01B0914D014091180686
:1031E0005091190660911A0670911B06840F951F65
:1031F000A61FB71F8093100690931106A093120686
:10320000B093130681E090E020910E0630910F06F6
:10321000232B11F480E090E090930F0680930E062C
:10322000609118067091190680911A0690911B06FC
:103230001F910F91FF90EF90DF90CF9008959093A2
:103240000D0680930C068091180690911906A091A6
:103250001A06B0911B068093100690931106A09356
:103260001206B09313060C948E181F920F920FB68D
:103270000F9211242F933F938F939F93AF93BF93FC
:103280008091280690912906A0912A06B0912B06DC
:103290003091270623E0230F2D3720F40196A11D3E
:1032A000B11D05C026E8230F0296A11DB11D209374
:1032B00027068093280690932906A0932A06B093A8
:1032C0002B0680912C0690912D06A0912E06B09190
:1032D0002F060196A11DB11D80932C0690932D06FB
:1032E000A0932E06B0932F06BF91AF919F918F911F
:1032F0003F912F910F900FBE0F901F9018952FB7F1
:10330000F894609128067091290680912A06909180
:103310002B062FBF08953FB7F89480912C0690910B
:103320002D06A0912E06B0912F0626B5A89B05C0AC
:103330002F3F19F00196A11DB11D3FBF6627782FC1
:10334000892F9A2F620F711D811D911D42E0660F1A
:10335000771F881F991F4A95D1F70895CF92DF9262
:10336000EF92FF92CF93DF936B017C010E948B1948
:10337000EB01C114D104E104F10489F00E94C61FDD
:103380000E948B196C1B7D0B683E734090F381E0AB
:10339000C81AD108E108F108C851DC4FEACFDF9123
:1033A000CF91FF90EF90DF90CF900895019739F083
:1033B000880F991F880F991F02970197F1F70895B9
:1033C000789484B5826084BD84B5816084BD85B500
:1033D000826085BD85B5816085BDEEE6F0E08081C7
:1033E00081608083E1E8F0E01082808182608083E8
:1033F000808181608083E0E8F0E08081816080836B
:10340000E1EBF0E0808184608083E0EBF0E080819C
:1034100081608083EAE7F0E080818460808380813E
:1034200082608083808181608083808180688083E6
:103430001092C1000895833081F028F4813099F012
:103440008230A1F008958730A9F08830B9F0843037
:10345000D1F4809180008F7D03C0809180008F77B0
:1034600080938000089584B58F7702C084B58F7DE6
:1034700084BD08958091B0008F7703C08091B00023
:103480008F7D8093B0000895CF93DF9390E0FC018F
:10349000E257FE4F2491FC01EE55FE4F84918823A4
:1034A00049F190E0880F991FFC01E653FE4FA5916A
:1034B000B49180549E4FFC01C591D4919FB7611186
:1034C00008C0F8948C91209582238C938881822364
:1034D0000AC0623051F4F8948C91322F30958323D6
:1034E0008C938881822B888304C0F8948C91822BE2
:1034F0008C939FBFDF91CF9108950F931F93CF932C
:10350000DF931F92CDB7DEB7282F30E0F901E658E0
:10351000FE4F8491F901E257FE4F1491F901EE55E7
:10352000FE4F04910023C9F0882321F069830E9493
:103530001B1A6981E02FF0E0EE0FFF1FE054FE4FF1
:10354000A591B4919FB7F8948C91611103C0109527
:10355000812301C0812B8C939FBF0F90DF91CF916E
:103560001F910F910895CF93DF93282F30E0F90139
:10357000E658FE4F8491F901E257FE4FD491F901CC
:10358000EE55FE4FC491CC2391F081110E941B1A7D
:10359000EC2FF0E0EE0FFF1FEA54FE4FA591B4911F
:1035A0002C912D2381E090E021F480E002C080E0A6
:1035B00090E0DF91CF910895FC01818D228D90E004
:1035C000805C9F4F821B91098F7399270895FC019E
:1035D000918D828D981731F0828DE80FF11D858DC8
:1035E00090E008958FEF9FEF0895FC01918D828DFB
:1035F000981761F0828DDF01A80FB11D5D968C9147
:10360000928D9F5F9F73928F90E008958FEF9FEF51
:10361000089589E79CE1892B49F080E090E0892BAF
:1036200029F00E94791C81110C9400000895FC017E
:10363000848DDF01A80FB11DA35ABF4F2C91848D3B
:1036400090E001968F739927848FA689B7892C9370
:10365000A089B1898C9180648C93938D848D98130B
:1036600006C00288F389E02D80818F7D80830895D4
:10367000CF93DF93EC01888D8823C9F0EA89FB8919
:10368000808185FD05C0A889B9898C9186FD0FC010
:103690000FB607FCF5CF808185FFF2CFA889B989E5
:1036A0008C9185FFEDCFCE010E94171BE7CFDF91F4
:1036B000CF910895CF92DF92FF920F931F93CF93F4
:1036C000DF931F92CDB7DEB76C01DC015B969C9156
:1036D0005B975C968C915C97981307C05096ED9120
:1036E000FC915197808185FD32C0F601038D10E079
:1036F0000F5F1F4F0F731127F02EF601848DF81204
:1037000011C00FB607FCF9CFD6015096ED91FC9190
:103710005197808185FFF1CFC60169830E94171BF5
:103720006981EBCF838DE80FF11DE35AFF4F608372
:10373000D6015B960C935B975296ED91FC91539753
:1037400080818062808381E058968C930DC0D60181
:103750005696ED91FC91579760835096ED91FC91B0
:10376000519780818064808381E090E00F90DF91A9
:10377000CF911F910F91FF90DF90CF900895BF924E
:10378000CF92DF92EF92FF92CF93DF93EC016A0129
:103790007B01B22EE889F98982E08083411581EEB0
:1037A000580761057105A1F060E079E08DE390E0D4
:1037B000A70196010E945F23215031094109510957
:1037C0005695479537952795211580E1380798F04C
:1037D000E889F989108260E874E88EE190E0A70139
:1037E00096010E945F2321503109410951095695E4
:1037F000479537952795EC85FD853083EE85FF85C8
:103800002083188EEC89FD89B082EA89FB8980814A
:1038100080618083EA89FB89808188608083EA896E
:10382000FB89808180688083EA89FB8980818F7D24
:103830008083DF91CF91FF90EF90DF90CF90BF908A
:1038400008951F920F920FB60F9211242F938F930A
:103850009F93EF93FF93E0914006F09141068081A2
:10386000E0914606F091470682FD12C0908180915A
:1038700049068F5F8F7320914A06821751F0E091BD
:103880004906F0E0E05DF94F958F8093490601C04D
:103890008081FF91EF919F918F912F910F900FBE9B
:1038A0000F901F9018951F920F920FB60F92112430
:1038B0002F933F934F935F936F937F938F939F9338
:1038C000AF93BF93EF93FF9380E396E00E94171BA3
:1038D000FF91EF91BF91AF919F918F917F916F91E8
:1038E0005F914F913F912F910F900FBE0F901F90BE
:1038F000189580E396E00E94DC1A21E0892B09F4F8
:1039000020E0822F0895109233061092320688EE3E
:1039100093E0A0E0B0E08093340690933506A09346
:103920003606B09337068EE994E090933106809383
:10393000300685EC90E090933D0680933C0684EC45
:1039400090E090933F0680933E0680EC90E0909349
:1039500041068093400681EC90E09093430680936B
:10396000420682EC90E0909345068093440686ECF4
:1039700090E0909347068093460610924906109275
:103980004A0610924B0610924C060895AF92BF92D1
:10399000CF92DF92EF92FF920F931F93CF93DF931B
:1039A0006C017B01C0E0D0E000E010E0F601EC0F1C
:1039B000FD1F4AE050E06281C7010E94A91E5C0120
:1039C0006EE2C7010E94901D8A0D9B1D080F191FF2
:1039D0002196C330D10551F74AE050E0F6016581E8
:1039E000C7010E94A91E800F911FDF91CF911F91E7
:1039F0000F91FF90EF90DF90CF90BF90AF90089520
:103A00002EEA34E0FC013183208312821382148277
:103A1000158208950F93FC018EEA94E091838083D0
:103A200062834383248305830F9108952EEA34E053
:103A3000FC0131832083FB014081518162817381CC
:103A4000FC0142835383648375830895FB014081A5
:103A5000518162817381FC01428353836483758346
:103A600008958EEA94E09093CE068093CD0610924E
:103A7000CF061092D0061092D1061092D206089569
:103A800008950E94E0190E94401D0E944502C9E06D
:103A9000DBE10E9463042097E1F30E94091BF9CF48
:103AA000CF92DF92EF92FF920F931F93CF93DF930A
:103AB0006C017A01EB01E60EF71E00E010E0CE1576
:103AC000DF0561F06991D601ED91FC910190F081E3
:103AD000E02DC6010995080F191FF1CFC801DF912C
:103AE000CF911F910F91FF90EF90DF90CF900895AD
:103AF0006115710581F0DB010D900020E9F7AD0142
:103B000041505109461B570BDC01ED91FC9102809D
:103B1000F381E02D099480E090E008950C94781DE5
:103B2000DC01ED91FC910190F081E02D0994DB0125
:103B3000ED91FC9111970190F081E02DBC01CD0138
:103B400009940F931F93CF93DF93EC016DE00E94D4
:103B5000901D8C016AE0CE010E94901D800F911F84
:103B6000DF91CF911F910F9108950F931F93CF93E2
:103B7000DF93EC010E94781D8C01CE010E94A11DF3
:103B8000800F911FDF91CF911F910F9108950F9397
:103B90001F93CF93DF93EC010E94971D8C01CE0100
:103BA0000E94A11D800F911FDF91CF911F910F9156
:103BB00008958F929F92AF92BF92CF92DF92EF9231
:103BC000FF920F931F93CF93DF93CDB7DEB7A197EB
:103BD0000FB6F894DEBF0FBECDBF7C01C42EE52F1B
:103BE000CB01D22E19A221E02D1510F02AE0D22E01
:103BF0008E010F5D1F4F8D2C912CA12CB12C6C2DA3
:103C00007E2FA50194010E945F238C2DD29E8019E6
:103C10001124015011098A3014F4805D01C0895CBF
:103C2000F8018083211531054105510521F0C22E8F
:103C3000E32FCA01E4CFB801C7010E94781DA19605
:103C40000FB6F894DEBF0FBECDBFDF91CF911F91AD
:103C50000F91FF90EF90DF90CF90BF90AF909F902B
:103C60008F900895CF92DF92EF92FF920F931F9360
:103C7000CF93DF93EC016A017B012115310579F4C3
:103C8000E881F9810190F081E02D642FDF91CF91DF
:103C90001F910F91FF90EF90DF90CF9009942A3001
:103CA0003105E9F477FF1AC06DE20E94901D8C0186
:103CB00044275527BA014C195D096E097F092AE08E
:103CC000CE010E94D91D800F911FDF91CF911F91CE
:103CD0000F91FF90EF90DF90CF9008952AE0B70109
:103CE000A601CE01DF91CF911F910F91FF90EF9030
:103CF000DF90CF900C94D91D9A01AB01662757FD38
:103D00006095762F0C94321E0F931F93CF93DF9301
:103D1000EC019A01AB01662757FD6095762F0E9452
:103D2000321E8C01CE010E94A11D800F911FDF91D8
:103D3000CF911F910F9108952115310541F4DC01B8
:103D4000ED91FC910190F081E02D642F09940C9489
:103D5000D91D9A01462F50E060E070E00C949C1E43
:103D60000F931F93CF93DF93EC019A01462F50E0FE
:103D700060E070E00E949C1E8C01CE010E94A11D9B
:103D8000800F911FDF91CF911F910F9108954F9256
:103D90005F926F927F928F929F92AF92BF92CF92DB
:103DA000DF92EF92FF920F931F93CF93DF93EC017B
:103DB0006A017B01B22E9A01AB01C701B6010E94D4
:103DC0002E22882319F060EB74E027C0260137010A
:103DD000E89477F82FEF3FEF4FE75FE7C301B201B9
:103DE0000E942E2281110DC02FEF3FEF4FE75FE7BA
:103DF000C301B2010E942C2018161CF464EB74E07D
:103E00000CC02FEF3FEF4FE75FE4C701B6010E9400
:103E10007B211816ACF468EB74E0CE01DF91CF91F2
:103E20001F910F91FF90EF90DF90CF90BF90AF90D8
:103E30009F908F907F906F905F904F900C94781D23
:103E40002FEF3FEF4FE75FECC701B6010E942C2038
:103E500087FDE1CF20E030E0A901C701B6010E9453
:103E60002C2087FF0AC06DE2CE010E94901D8C01BC
:103E7000F7FAF094F7F8F09402C000E010E0A12CFB
:103E800060E070E080E09FE3AB1441F020E030E0C0
:103E900040E251E40E943020A394F6CF9B01AC0194
:103EA000C701B6010E94C81F6B017C010E949D20C2
:103EB0002B013C010E94C9209B01AC01C701B60146
:103EC0000E94C71F6B017C012AE0B301A201CE0151
:103ED0000E94D91D080F191FBB2039F06CEB74E04C
:103EE000CE010E94781D080F191F7B2C772041F10D
:103EF00020E030E040E251E4C701B6010E947F219A
:103F00006B017C010E9498204B01AA2497FCA0948D
:103F1000BA2C2AE030E0B501A401CE010E94321E85
:103F2000080F191FC501B4010E94CB209B01AC01F1
:103F3000C701B6010E94C71F6B017C017A94D6CFDE
:103F4000C801DF91CF911F910F91FF90EF90DF900B
:103F5000CF90BF90AF909F908F907F906F905F9029
:103F60004F9008950C94C71E0F931F93CF93DF9328
:103F7000EC010E94C71E8C01CE010E94A11D800F82
:103F8000911FDF91CF911F910F910895089550587F
:103F9000BB27AA270ED075C166D130F06BD120F0B7
:103FA00031F49F3F11F41EF45BC10EF4E095E7FB82
:103FB00051C1E92F77D180F3BA17620773078407DD
:103FC000950718F071F49EF58FC10EF4E0950B2E55
:103FD000BA2FA02D0B01B90190010C01CA01A0015B
:103FE0001124FF27591B99F0593F50F4503E68F1B6
:103FF0001A16F040A22F232F342F4427585FF3CFF7
:10400000469537952795A795F0405395C9F77EF4C7
:104010001F16BA0B620B730B840BBAF09150A1F010
:10402000FF0FBB1F661F771F881FC2F70EC0BA0F96
:10403000621F731F841F48F4879577956795B7951E
:10404000F7959E3F08F0B3CF9395880F08F0992716
:10405000EE0F979587950895D9D008F481E00895DB
:104060000CD00FC107D140F0FED030F021F45F3FFB
:1040700019F0F0C0511139C1F3C014D198F399234C
:10408000C9F35523B1F3951B550BBB27AA2762171C
:104090007307840738F09F5F5F4F220F331F441F61
:1040A000AA1FA9F333D00E2E3AF0E0E830D0915099
:1040B0005040E695001CCAF729D0FE2F27D0660F86
:1040C000771F881FBB1F261737074807AB07B0E8C5
:1040D00009F0BB0B802DBF01FF2793585F4F2AF0DB
:1040E0009E3F510568F0B6C000C15F3FECF3983EBB
:1040F000DCF3869577956795B795F7959F5FC9F738
:10410000880F911D9695879597F90895E1E0660FC0
:10411000771F881FBB1F621773078407BA0720F039
:10412000621B730B840BBA0BEE1F88F7E0950895A2
:1041300004D06894B111D9C00895BCD088F09F57BD
:1041400090F0B92F9927B751A0F0D1F0660F771FE3
:10415000881F991F1AF0BA95C9F712C0B13081F0C3
:10416000C3D0B1E00895C0C0672F782F8827B85F0B
:1041700039F0B93FCCF3869577956795B395D9F724
:104180003EF490958095709561957F4F8F4F9F4F2E
:104190000895E89409C097FB3EF49095809570953A
:1041A00061957F4F8F4F9F4F9923A9F0F92F96E983
:1041B000BB279395F695879577956795B795F111F8
:1041C000F8CFFAF4BB0F11F460FF1BC06F5F7F4F95
:1041D0008F4F9F4F16C0882311F096E911C07723A7
:1041E00021F09EE8872F762F05C0662371F096E8B0
:1041F000862F70E060E02AF09A95660F771F881F7F
:10420000DAF7880F9695879597F90895990F000822
:10421000550FAA0BE0E8FEEF16161706E807F90798
:10422000C0F012161306E407F50798F0621B730B33
:10423000840B950B39F40A2661F0232B242B252BB4
:1042400021F408950A2609F4A140A6958FEF811D57
:10425000811D089597F99F6780E870E060E00895F8
:104260009FEF80EC089500240A941616170618068E
:104270000906089500240A9412161306140605066A
:104280000895092E0394000C11F4882352F0BB0FFB
:1042900040F4BF2B11F460FF04C06F5F7F4F8F4F5E
:1042A0009F4F089557FD9058440F551F59F05F3F99
:1042B00071F04795880F97FB991F61F09F3F79F048
:1042C00087950895121613061406551FF2CF4695CA
:1042D000F1DF08C0161617061806991FF1CF86954C
:1042E0007105610508940895E894BB276627772730
:1042F000CB0197F908958ADF08F48FEF08950BD06A
:10430000C0CFB1DF28F0B6DF18F0952309F0A2CFB7
:10431000A7CF1124EACFC6DFA0F3959FD1F3950F65
:1043200050E0551F629FF001729FBB27F00DB11D39
:10433000639FAA27F00DB11DAA1F649F6627B00DC9
:10434000A11D661F829F2227B00DA11D621F739FB2
:10435000B00DA11D621F839FA00D611D221F749FC0
:104360003327A00D611D231F849F600D211D822F07
:10437000762F6A2F11249F5750408AF0E1F088234E
:104380004AF0EE0FFF1FBB1F661F771F881F91505B
:104390005040A9F79E3F510570F05CCFA6CF5F3F1C
:1043A000ECF3983EDCF3869577956795B795F7958E
:1043B000E7959F5FC1F7FE2B880F911D9695879516
:1043C00097F90895FA01EE0FFF1F30962105310588
:1043D00099F16115710561F48038BFE39B0749F1DC
:1043E00068949038810561F08038BFEF9B0741F0F9
:1043F000992342F5FF3FE1053105210511F1E894CC
:104400000894E795D901AA2329F4AB2FBE2FF85FB2
:10441000D0F310C0FF5F70F4A695E0F7F73950F0C5
:1044200019F0FF3A38F49F779F930CD00F9007FC58
:10443000905808953EF014CF60E070E080E89FE36C
:1044400008954FE79F775F934F933F932F93A2D0A9
:104450002F913F914F915F9152DF09C0D7DE880BBA
:10446000990B089519F40EF0F5CE3ECFF9CE22DF68
:10447000C8F39638C0F707F80F92E8942BE33AEAAE
:1044800048EB5FE74ADF0F920F920F924DB75EB78E
:104490000F92C0D0E8E6F0E016D04F915F91EF9117
:1044A000FF91E595EE1FFF1F49F0FE57E068442796
:1044B000EE0F441FFA95E1F74195550B32D00F905E
:1044C00007FE26C00895DF93CF931F930F93FF92AB
:1044D000EF92DF927B018C01689405C0DA2EEF0128
:1044E0001ADFFE01E894A5912591359145915591EA
:1044F000AEF3EF015EDDFE019701A801DA9479F7D2
:10450000DF90EF90FF900F911F91CF91DF91089571
:104510009B01AC0160E070E080E89FE3A1CD9ACE02
:10452000ACC0C8DEE8F39923D9F3940F511DBBF357
:104530009150504094F059F0882332F0660F771F65
:10454000881F91505040C1F79E3F510544F7880F96
:10455000911D9695879597F908955F3FACF0983E29
:104560009CF0BB27869577956795B79508F4B16061
:104570009395C1F7BB0F58F711F460FFE8CF6F5F59
:104580007F4F8F4F9F4FE3CFB0CE0EF076C068CEF7
:10459000689460CE8FDEC8F39923D1F3C6F3DF931E
:1045A000CF931F930F93FF92C92FDD2788232AF003
:1045B0002197660F771F881FDAF720E030E040E888
:1045C0005FEB9FE3883920F0803E30F021968F77B3
:1045D000DFDCE0E9F0E003C0DBDCEDEBF0E073DF13
:1045E0008B01BE01EC01FB2E6F5771097595771F8A
:1045F000880B990BD0DD28E132E741E35FE38BDEE6
:10460000AF2D9801AE01FF900F911F91CF91DF91D7
:10461000D0DC37CEFA01DC01AA0FBB1F9B01AC0135
:10462000BF5728F422273327442750781FC0B7519B
:1046300088F4AB2F0024469537952795011CA39548
:10464000D2F3002069F0220F331F441FB395DAF331
:104650000DD09DCC61307105A0E88A07B94630F4D1
:104660009B01AC016627772788279078309621F048
:10467000208331834283538308959F3F31F09150CB
:1046800020F4879577956795B795880F911D969536
:10469000879597F9089597FB072E16F4009407D095
:1046A00077FD09D00E94812307FC05D03EF4909548
:1046B00081959F4F0895709561957F4F0895A1E270
:1046C0001A2EAA1BBB1BFD010DC0AA1FBB1FEE1F8C
:1046D000FF1FA217B307E407F50720F0A21BB30BD7
:1046E000E40BF50B661F771F881F991F1A9469F753
:1046F00060957095809590959B01AC01BD01CF01AF
:104700000895AA1BBB1B51E107C0AA1FBB1FA61718
:10471000B70710F0A61BB70B881F991F5A95A9F76A
:1047200080959095BC01CD010895EE0FFF1F059077
:10473000F491E02D099411E0C4EED1E004C0FE0133
:104740000E9497232296C63ED107C9F7F894FFCF5F
:10475000890393039C039C039C03A403A403AC035D
:10476000AC03B303B303BB0301008C03C303CD034A
:10477000D503DD03E703EE03F503FB03010408049F
:104780000F04560950776431323334210054657375
:104790007400FFFFFFFFFFFFFFFF2C0100005353DA
:1047A00049443A2000495020416464726573733A69
:1047B00020007369676E616C20737472656E677434
:1047C00068202852535349293A002064426D004121
:1047D0007474656D7074696E6720746F20636F6E9A
:1047E0006E65637420746F20575041206E65747736
:1047F0006F726B00436F756C64206E6F742065730D
:104800007461626C697368205769666920636F6EB2
:104810006E656374696F6E00436F6E6E6563746975
:104820006F6E20746F206E6574776F726B20657386
:104830007461626C69736865640057616974696E5C
:104840006720666F72204E54502074696D65207326
:10485000796E630054696D6564206F7574206C69AE
:104860007374656E696E6720666F7220646174612F
:10487000004D697373696E672065736361706520AD
:1048800000435243206572726F723A200052656194
:1048900064696E6720646174612066726F6D204D7B
:1048A000756C746963616C2036303200436F6E6ED4
:1048B0006563746564210053656E64696E67206486
:1048C00061746120746F206461746162617365203A
:1048D00073657276657200505554202F646174615F
:1048E0005F706F7374312E7068703F747970653DBE
:1048F00000266E616D653D002676616C75653D0034
:104900002669643D002674696D653D003000446F82
:104910006E652073656E64696E67206461746120E2
:10492000746F20646174616261736520736572766F
:10493000657200436F6E6E656374696F6E206661A9
:10494000696C656400417474656D7074696E67208C
:10495000636F6E6E656374696F6E2077697468202B
:10496000646174616261736520736572766572005B
:104970002D2D2D2D2D2D2D2D2D2D2D2D2D2D2D2D67
:104980002D2D2D2D2D2D2D2D2D2D2D2D2D2D2D2D57
:104990002D2D2D2D2D2D2D2D2D2D005472616E734D
:1049A0006D6974204E5450205265717565737400A2
:1049B00052656365697665204E5450205265737068
:1049C0006F6E7365004E6F204E54502052657370A9
:1049D0006F6E7365203A2D280046565F456E6572EE
:1049E00067790046565F506F7765720046565F5490
:1049F000656D700046565F466C6F770046565F5691
:104A00006F6C0046565F4D6173730046565F6C6570
:104A1000616B004375725F506F7765720054656D0E
:104A2000705F54310054656D705F543200446966A4
:104A3000665F54656D7000466C6F775F3100466C41
:104A40006F775F3200566F6C5F3100566F6C5F326C
:104A5000004D6173735F31004D6173735F32004CC1
:104A600065616B003C0050005600570059004A0039
:104A70004B0044004500480049004E6F20536F63CF
:104A80006B657420617661696C61626C6500000021
:104A90000000D408BE0953095C098009EA084A0AE3
:104AA0000909A409FA09270A010900000000D90A26
:104AB000D50B340BE00B040CF60A0D0B3D0B940BDD
:104AC0004A0BCF0BEF0A280CD20A7E0C570C0000C1
:104AD00000000A15501D4A140F14301462141F1CD4
:104AE0001F1E1F1E1F1F1E1F1E1F000000005A1B1F
:104AF000501DDC1AF51AE71A381B00000000C61C0E
:0E4B00006E616E00696E66006F7666002E00B4
:00000001FF
